{
  "contractName": "Election",
  "abi": [
    {
      "inputs": [],
      "stateMutability": "nonpayable",
      "type": "constructor"
    },
    {
      "anonymous": false,
      "inputs": [
        {
          "indexed": true,
          "internalType": "uint256",
          "name": "_candidateId",
          "type": "uint256"
        }
      ],
      "name": "electionupdates",
      "type": "event"
    },
    {
      "inputs": [
        {
          "internalType": "uint256",
          "name": "",
          "type": "uint256"
        }
      ],
      "name": "candidates",
      "outputs": [
        {
          "internalType": "uint256",
          "name": "id",
          "type": "uint256"
        },
        {
          "internalType": "string",
          "name": "name",
          "type": "string"
        },
        {
          "internalType": "uint256",
          "name": "voteCount",
          "type": "uint256"
        }
      ],
      "stateMutability": "view",
      "type": "function",
      "constant": true
    },
    {
      "inputs": [],
      "name": "candidatesCount",
      "outputs": [
        {
          "internalType": "uint256",
          "name": "",
          "type": "uint256"
        }
      ],
      "stateMutability": "view",
      "type": "function",
      "constant": true
    },
    {
      "inputs": [
        {
          "internalType": "address",
          "name": "",
          "type": "address"
        }
      ],
      "name": "votedornot",
      "outputs": [
        {
          "internalType": "bool",
          "name": "",
          "type": "bool"
        }
      ],
      "stateMutability": "view",
      "type": "function",
      "constant": true
    },
    {
      "inputs": [
        {
          "internalType": "uint256",
          "name": "_candidateId",
          "type": "uint256"
        }
      ],
      "name": "vote",
      "outputs": [],
      "stateMutability": "nonpayable",
      "type": "function"
    }
  ],
  "bytecode": "0x608060405234801561001057600080fd5b5060408051808201909152600f81526e10da195b1cda584810995c9b985c99608a1b602082015261004090610072565b60408051808201909152600d81526c5361646f636b204d6c616e676160981b602082015261006d90610072565b6101de565b600280549060006100828361017a565b909155505060408051606081018252600254808252602080830185815260008486018190529283526001808352949092208351815591518051939492936100d09385019291909101906100e1565b506040820151816002015590505050565b8280546100ed906101a3565b90600052602060002090601f01602090048101928261010f5760008555610155565b82601f1061012857805160ff1916838001178555610155565b82800160010185558215610155579182015b8281111561015557825182559160200191906001019061013a565b50610161929150610165565b5090565b5b808211156101615760008155600101610166565b600060001982141561019c57634e487b7160e01b600052601160045260246000fd5b5060010190565b600181811c908216806101b757607f821691505b602082108114156101d857634e487b7160e01b600052602260045260246000fd5b50919050565b610367806101ed6000396000f3fe608060405234801561001057600080fd5b506004361061004c5760003560e01c80630121b93f146100515780631bc57022146100665780632d35a8a21461009e5780633477ee2e146100b5575b600080fd5b61006461005f36600461021f565b6100d7565b005b610089610074366004610238565b60006020819052908152604090205460ff1681565b60405190151581526020015b60405180910390f35b6100a760025481565b604051908152602001610095565b6100c86100c336600461021f565b610175565b60405161009593929190610268565b3360009081526020819052604090205460ff16156100f457600080fd5b60008111801561010657506002548111155b61010f57600080fd5b600081815260016020526040812060020180549161012c836102cd565b909155505033600090815260208190526040808220805460ff191660011790555182917fd93077071c8cb212a55328c172d918aa4be24d23f29cfe1816841243ec02158291a250565b600160208190526000918252604090912080549181018054610196906102f6565b80601f01602080910402602001604051908101604052809291908181526020018280546101c2906102f6565b801561020f5780601f106101e45761010080835404028352916020019161020f565b820191906000526020600020905b8154815290600101906020018083116101f257829003601f168201915b5050505050908060020154905083565b60006020828403121561023157600080fd5b5035919050565b60006020828403121561024a57600080fd5b81356001600160a01b038116811461026157600080fd5b9392505050565b83815260006020606081840152845180606085015260005b8181101561029c57868101830151858201608001528201610280565b818111156102ae576000608083870101525b5060408401949094525050601f91909101601f19160160800192915050565b60006000198214156102ef57634e487b7160e01b600052601160045260246000fd5b5060010190565b600181811c9082168061030a57607f821691505b6020821081141561032b57634e487b7160e01b600052602260045260246000fd5b5091905056fea2646970667358221220f45b40094bf388cf50d4db154e7805c83b81ba689b8449615ecd315f4ff92f1264736f6c634300080c0033",
  "immutableReferences": {},
  "source": "//SPDX-License-Identifier: MIT\npragma solidity ^0.8.0;\ncontract Election{\n    //Model a Candidate\n    struct Candidate{\n        uint id;\n        string name;\n        uint voteCount;\n    }\n    //Store accounts that have voted\n    mapping(address => bool) public votedornot;\n    //Fetch Candidate\n    mapping(uint => Candidate) public candidates;\n    //Store candidate count \n    uint public candidatesCount;\n   //voted event\n    event electionupdates(\n        uint indexed _candidateId\n        );\n\n    constructor(){\n        //the code that we want to initiate\n        addCandidate(\"Chelsia Bernard\");\n        addCandidate(\"Sadock Mlanga\");\n\n    }\n    //add candidates \n    function addCandidate(string memory name) private{\n        candidatesCount++;\n        candidates[candidatesCount] = Candidate(candidatesCount, name, 0);\n    }\n    function vote (uint _candidateId) public{\n        //require that voter has not voted before\n        require(!votedornot[msg.sender]);\n        //require a valid candidate\n        require(_candidateId > 0 && _candidateId <= candidatesCount);\n        //update candidate vote count\n        candidates[_candidateId].voteCount++;\n        //record that voter has voted\n        votedornot[msg.sender] = true;\n        //trigger voted event\n        emit electionupdates(_candidateId);\n    }\n\n}",
  "sourcePath": "/home/sadock/Music/lastdraftfyp/contracts/Election.sol",
  "compiler": {
    "name": "solc",
    "version": "0.8.12+commit.f00d7308.Emscripten.clang"
  },
  "schemaVersion": "3.4.7",
  "updatedAt": "2022-06-11T12:29:17.718Z",
  "networkType": "ethereum",
  "devdoc": {
    "kind": "dev",
    "methods": {},
    "version": 1
  },
  "userdoc": {
    "kind": "user",
    "methods": {},
    "version": 1
  }
}